:020000040800F2
:1000000010040020C1010008510A0008490A000834
:100010004D0A0008A9020008250B00080000000096
:10002000000000000000000000000000550A000869
:10003000AD02000800000000530A0008570A00083B
:10004000DB010008DB010008DB010008DB01000820
:10005000DB010008DB010008AF020008DB0100083B
:10006000DB010008DB010008DB010008DB01000800
:10007000DB010008DB010008DB010008DB010008F0
:10008000DB010008DB010008DB010008DB010008E0
:10009000DB010008DB010008DB010008DB010008D0
:1000A000DB010008DB010008DB010008DB010008C0
:1000B000DB010008DB010008DB010008DB010008B0
:1000C000DB010008DB010008DB010008DB010008A0
:1000D000DB010008DB010008DB010008DB01000890
:1000E000DB010008DB010008DB010008DB01000880
:1000F000DB010008DB010008DB010008DB01000870
:10010000DB010008DB010008DB010008DB0100085F
:10011000DB010008DB010008DB010008DB0100084F
:10012000DB010008DB010008DB010008DB0100083F
:10013000DB010008DB010008DB010008DB0100082F
:10014000DB010008DB010008DB010008DB0100081F
:10015000DB010008DB010008DB010008DB0100080F
:10016000DB010008DB010008DB010008DB010008FF
:10017000DB010008DB010008DB01000800000000D3
:10018000DB010008DB010008DB010008DB010008DF
:10019000DB010008DB010008DB010008DB010008CF
:1001A000DB010008DB010008DB010008DFF80CD0F0
:1001B00000F068F8004800477F0B0008100400209A
:1001C0000648804706480047FEE7FEE7FEE7FEE7F1
:1001D000FEE7FEE7FEE7FEE7FEE7FEE7C10A0008EE
:1001E000AD0100082DE9F05F0546002092469B46D0
:1001F00088460646814640241BE02846414647463D
:10020000224600F02FF853465A46C01A914110D3A7
:1002100011461846224600F016F82D1A67EB010821
:100220004F4622460120002100F00DF817EB00098F
:100230004E41201EA4F10104DFDC484631462A4627
:100240004346BDE8F09F202A04DB203A00FA02F181
:10025000002070479140C2F1200320FA03F31943B4
:1002600090407047202A04DB203A21FA02F0002156
:10027000704721FA02F3D040C2F1200291400843B6
:1002800019467047064C074D06E0E06840F0010350
:1002900094E8070098471034AC42F6D3FFF78AFF82
:1002A000A00B0008C00B000800BFFEE770477047B6
:1002B00001480068704700000400002003480068FF
:1002C0000349097808440149086070470400002088
:1002D0000C00002070B504460E4800784FF47A7187
:1002E000B1FBF0F00C490968B1FBF0F5284600F0CD
:1002F00091FB08B1012070BD102C07D200222146CD
:10030000501E00F00DF80548046001E00120F2E7FE
:100310000020F0E70C000020000000200800002072
:100320002DE9F05F80460D461646002700F0FCFBE5
:10033000074639462A46334601F00700C0F1070A4E
:10034000BAF1040F02D94FF0040A01E0C0F1070A24
:10035000D14600F1040ABAF1070F02D24FF0000AA9
:1003600001E0A0F1030AD4464FF0010A0AFA09FAA3
:10037000AAF1010A0AEA020A0AFA0CFA4FF0010B82
:100380000BFA0CFBABF1010B0BEA030B4AEA0B0473
:100390002146404600F0D0FBBDE8F09F70B5044612
:1003A0000D460CB9012070BD5848006800F00F00E0
:1003B000A84209D255490D700846006800F00F00A8
:1003C000A84201D00120EEE7207800F002000228C8
:1003D0001DD1207800F00400042805D14C480068A5
:1003E00040F4E0504A490860207800F008000828EE
:1003F00005D14748006840F46040454908604448DA
:10040000006820F0F000A1680843414908602078A6
:1004100000F00100A8B36068012807D13C48083803
:100420000068C0F34040B8B90120BCE7606802280A
:1004300002D06068032807D1354808380068C0F347
:10044000406048B90120AEE7314808380068C0F381
:10045000400008B90120A6E72D48006820F00300FD
:10046000616808432A490860FFF722FF064609E051
:10047000FFF71EFF801B41F28831884202D903201A
:1004800091E707E02248006800F00C006168B0EBDB
:10049000810FEDD11D48006800F00F00A84209D976
:1004A0001A490D700846006800F00F00A84201D0FC
:1004B000012078E7207800F00400042807D11448D0
:1004C000006820F4E050E168084311490860207892
:1004D00000F00800082808D10D48006820F46040AA
:1004E000216940EAC1000A49086000F017F808498C
:1004F0000968C1F30311074A515CC8400649086006
:100500000F20FFF7E7FE00204DE70000003C02400F
:1005100008380240860B0008000000202DE9F04753
:10052000002400250026A1462548006800F00C00A4
:1005300020B1042805D008283AD105E0DFF88490DE
:1005400039E0DFF8849036E01D48001F006800F0B5
:100550003F041B48001F006800F4800078B11A486F
:100560001749091F0968C1F38811A0FB01700146F2
:10057000224600233846FFF735FE05460EE01148B7
:100580000F49091F0968C1F38811A0FB01700146DA
:10059000224600233846FFF725FE05460848001F7F
:1005A0000068C0F30140401C4600B5FBF6F902E0CC
:1005B000DFF8109000BF00BF4846BDE8F08700009C
:1005C000083802400024F40000127A00F8B504460E
:1005D0000CB90120F8BD207800F00100002874D08B
:1005E000F948006800F00C0004280DD0F6480068B7
:1005F00000F00C00082813D1F348001F006800F435
:100600008000B0F5800F0BD1EF4808380068C0F3C8
:100610004040002859D06068002856D10120D9E711
:1006200000BF6068B0F5803F08D1E748083800682F
:1006300040F48030E449083908601EE06068B0F595
:10064000A02F0DD1E0480838006840F48020DE4932
:10065000083908600846006840F4803008600CE003
:10066000D9480838006820F48030D7490839086034
:100670000846006820F48020086000BF606890B1E0
:10068000FFF716FE054606E0FFF712FE401B642842
:1006900001D903209EE7CC4808380068C0F34040E9
:1006A0000028F1D011E0FFF703FE054606E0FFF752
:1006B000FFFD401B642801D903208BE7C24808389E
:1006C0000068C0F340400028F1D1207800F002001B
:1006D00002285FD1BC48006800F00C0058B1BA484D
:1006E000006800F00C0008281CD1B748001F006803
:1006F00000F48000B0B9B44808380068C0F3400086
:1007000020B1E068012801D0012063E7AE48083835
:10071000006820F0F800216940EAC100AA490839C0
:10072000086037E0E06800B30120A8490860FFF7DF
:10073000BFFD054606E0FFF7BBFD401B022801D9BF
:10074000032047E7A04808380068C0F340000028AD
:10075000F1D09D480838006820F0F800216940EA8F
:10076000C10099490839086014E0002097490860E1
:10077000FFF79EFD054606E0FFF79AFD401B0228A5
:1007800001D9032026E7904808380068C0F34000EC
:100790000028F1D1207800F0080008282CD16069E9
:1007A000A8B101208A490860FFF782FD054606E0EE
:1007B000FFF77EFD401B022801D903200AE782488B
:1007C0006C300068C0F340000028F1D014E0002035
:1007D0007F490860FFF76CFD054606E0FFF768FDFE
:1007E000401B022801D90320F4E677486C300068EA
:1007F000C0F340000028F1D1207800F00400042864
:1008000070D1002670483830006800F0805090B9F0
:1008100000BF002000906C483830006840F08050E5
:100820006949383108600846006800F0805000903F
:1008300000BF00BF01266748006800F48070B0B9AF
:100840006448006840F4807062490860FFF730FD3A
:10085000054606E0FFF72CFD401B022801D90320C6
:10086000B8E65C48006800F480700028F2D000BF51
:10087000A068012808D154486830006840F00100A1
:100880005149683108601DE0A06805280DD14E4827
:100890006830006840F004004B4968310860084641
:1008A000006840F0010008600CE0474868300068CC
:1008B00020F001004449683108600846006820F0D3
:1008C0000400086000BFA068A8B1FFF7F1FC05466E
:1008D00009E0FFF7EDFC401B41F28831884202D964
:1008E000032077E626E0384868300068C0F340000F
:1008F0000028EED013E0FFF7DBFC054608E0FFF729
:10090000D7FC401B41F28831884201D9032061E6BF
:100910002D4868300068C0F340000028EFD1012E58
:1009200007D129483830006820F0805026493831F6
:10093000086000BFA069B8B32348006800F00C004D
:1009400008285ED0A069022846D100201F49086609
:10095000FFF7AEFC054606E0FFF7AAFC401B0228A5
:1009600001D9032036E6184808380068C0F3406013
:100970000028F1D1D4E907010843616A40EA8111F6
:100980000122A06AC2EB500041EA00412C20005D28
:1009900041EA00600C49091F086001200B49086604
:1009A000FFF786FC054607E02DE0FFF781FC401BC2
:1009B000022801D903200DE6034808380068C0F377
:1009C00040600028F1D01EE0083802400000474295
:1009D000800E47420070004000200C490866FFF777
:1009E00067FC054606E0FFF763FC401B022801D9BF
:1009F0000320EFE506480068C0F340600028F2D10C
:100A000001E00120E6E50020E4E5000000004742A7
:100A10000038024070B504462546681EB0F1807F5C
:100A200001D301200FE0681E4FF0E02148610F2143
:100A30004FF0FF3000F080F800204FF0E021886197
:100A400007200861002070BD00BFFEE700BFFEE781
:100A500070477047704710B5FFF730FC10BD10B5F8
:100A600092B000240120019000040290022007901F
:100A700041050891192109914FF4A8710A910221A9
:100A80000B9104210C9101A8FFF7A0FD04460CB1C5
:100A900000BFFEE70F200D9002200E9000200F9067
:100AA0004FF4A05010904FF48050119005210DA8E4
:100AB000FFF774FC04460CB100BFFEE712B010BD96
:100AC0001448006840F47000124908601248006839
:100AD00040F001001049086000200F49083108600B
:100AE0000D4800680D4908400B4908600C48091D75
:100AF0000860081F006820F48020091F086000209B
:100B000005490C3108604FF00060024980390860E7
:100B10007047000088ED00E000380240FFFFF6FE5D
:100B20001030002400BFFEE702480068C0F3022036
:100B3000704700000CED00E010B5002804DB0A0748
:100B4000130E054A135406E00A07140E034A00F078
:100B50000F031B1FD45410BD00E400E018ED00E0AB
:100B600002E008C8121F08C1002AFAD17047704776
:100B7000002001E001C1121F002AFBD17047FFF7DE
:100B80006EFF00BFFEE70000000000000000010251
:100B90000304060708090000000001020304000026
:100BA000C00B00080000002010000000600B0008CF
:100BB000D00B00081000002000040000700B00089B
:100BC0000024F400000000001000000001000000FC
:04000005080001AD41
:00000001FF
